:020000040800F2
:104000009008002045410008E554000829540008A4
:104010002D5400080D49000811640008000000003C
:10402000000000000000000000000000495B0008E4
:10403000314A000800000000B9550008095F000877
:10404000216400085F4100085F4100085F410008EB
:104050005F4100085F4100085F4100085F410008C0
:104060005F4100085F4100085F4100085F410008B0
:104070005F4100085F4100085F4100085F410008A0
:104080005F4100085F4100085F4100085F41000890
:104090005F4100085F4100085F410008494B00088C
:1040A0005F4100085F4100085F4100085F41000870
:1040B0005F4100085F4100085F4100085F41000860
:1040C0005F4100085F4100085F4100085F41000850
:1040D0005F41000865610008896100085F410008D0
:1040E0005F4100085F4100085F4100085F41000830
:1040F0005F4100085F4100085F4100085F41000820
:104100005F4100085F4100085F4100085F4100080F
:104110005F4100085F4100085F4100085F410008FF
:104120005F4100085F4100085F4100085F410008EF
:10413000DFF80CD000F0D8FB00480047C96D00083C
:10414000900800200648804706480047FEE7FEE743
:10415000FEE7FEE7FEE7FEE7FEE7FEE7FEE7FEE737
:10416000815F000831410008D2B201E000F8012B64
:10417000491EFBD270470022F6E710B513460A46E7
:1041800004461946FFF7F0FF204610BD034611F81C
:10419000012B00F8012B002AF9D11846704780EA5C
:1041A000010210B502F00043400022D04A001FD0A7
:1041B000010E01EB1261C0F35600C2F3560240F447
:1041C000000042F40002A0FB022000047F39140426
:1041D00000D0401C50EA124001D44000491EC2B237
:1041E0000C0604EBD010401C4008802A02D003E0EB
:1041F000002010BD20F00100002900DA0020184343
:1042000010BD30B480EA010202F0004530F00042F7
:1042100021F0004013D090B1C30DD40DC2F31601AC
:10422000C0F31600E41A41F4000140F400027D34AA
:10423000914201D3641C00E04900002C02DA30BC3A
:10424000002070474FF400000023914201D3891AE7
:10425000034340084FEA4101F7D151B1914202D1E5
:104260004FF0004105E002D24FF0010101E06FF094
:10427000010103EBC450284430BC00F0A0BA2DE982
:10428000FE4F804681EA0300C00F0C46009021F0EB
:10429000004123F00045B8EB0200A94105D2404699
:1042A000214690461C460B46024623F00040104330
:1042B00047D0270DC7F30A00C3F30A510290401AF2
:1042C000019040286BDAC3F3130040F4801B009880
:1042D000924620B10023D2EB030A63EB0B0B01984B
:1042E0005946C0F14002504600F038FA06460D46E5
:1042F00050465946019A00F050FA10EB080061410F
:10430000002487EA115284EAE7731A4340D0009AE6
:1043100062B3019A012A4FEA075215DC001B61EBD8
:1043200002014FF0004202EA0752CDE90042001CB0
:1043300041F5801132462B4600F087FA03B0BDE804
:10434000F08F40462146F9E7001B61EB0201001C9B
:1043500041F5801300185B412018A2F5001747EBC8
:10436000030140EAD570B6196D4111E06D084FEABE
:10437000360645EAC0754FEA0752001B61EB0201A1
:10438000001C41F5801149084FEA300000195141E5
:1043900032462B4603B0BDE8F04F00F047BA009814
:1043A000012240000023D0EB020263EBE07300988F
:1043B00021464FEAE074B8EB000061EB0401E9E745
:1043C00083F000435BE781F0004158E72DE9FE4FA1
:1043D00081EA030404F0004421F0004100944FF00E
:1043E000000B23F0004350EA01045ED052EA0304BC
:1043F0005BD0C3F30A54C1F30A552C44A4F2F3343E
:104400000194A0FB0254C1F3130141F48011C3F3E2
:10441000130343F4801301FB024400FB034E840AA0
:10442000970A44EA815447EA8357A4FB0768029538
:104430008D0A05FB07854FEA932C04FB0C542705D6
:10444000029D4FEA065847EA1637B5EB08056EEBB2
:10445000070C870E920E47EA811742EA8312A7FBE8
:104460000201B6EB0B0164EB00042B0D43EA0C33A5
:104470005E1844EB1C50DA465146E7FB0201C5F3D7
:1044800013044FEA0B3343EA14534FEA0432019CFE
:1044900043EA0603A4F10C040294009CCDE900B4A5
:1044A00000F0D3F903B0BDE8F08F00200146F9E732
:1044B0002DE9F04D81EA030404F0004B21F00045A2
:1044C00014464FF0000A23F0004150EA050220D0C4
:1044D00054EA01021DD0C5F30A570246C5F313037F
:1044E000C1F31300C1F30A5640F4801543F480135E
:1044F000A7EB0608101BD64608F2FD3873EB050043
:1045000002D308F1010801E092185B41B8F1000FF5
:1045100003DA00200146BDE8F08D00204FF4801141
:10452000064684460EE0171B73EB050705D3121BE6
:1045300063EB050306434CEA010C49084FEA3000DF
:1045400092185B4150EA0107EDD152EA030012D004
:1045500082EA040083EA0501084305D0101BAB4141
:1045600006D20122002306E000224FF0004302E0C1
:104570006FF0010253101AEB06004CEB085110EBE0
:104580000A0041EB0B01BDE8F04D00F04FB9C10F3F
:1045900080EAE0700844CA079623002100F018B9A9
:1045A00096230022114600F013B90EB5C10F80EA20
:1045B000E0700844CA07002140F233438DE80E0042
:1045C0000A460B4600F041F903B000BD0EB540F2BB
:1045D000334102910021CDE900110A460B4600F05B
:1045E00034F903B000BD00F0004220F00040C10DDE
:1045F000C0F3160040F400007F2901DA0020704764
:10460000962903DCC1F19601C84001E09639884043
:10461000002AF4D04042704720F00040C10DC0F3A2
:10462000160040F400007F2901DA00207047962927
:1046300003DCC1F19601C840704796398840704745
:1046400070B5C1F30A5201F000450024C1F3130113
:1046500040F2FF3341F480119A4201DA002070BD2C
:1046600040F233439A42A2F2334203DC524200F05A
:1046700084F800E090402C43F1D0404270BDC1F37B
:104680000A5210B5C1F3130140F2FF3341F4801117
:104690009A4201DA002010BD40F233439A42A2F25E
:1046A000334203DC524200F068F810BD904010BD68
:1046B00000F0004230F000400AD0C10D01F56071F9
:1046C000C0F3160042EA0151C20840071143704787
:1046D000002001467047000030B5041E71F100044F
:1046E00004DB4FF00044404264EB0101141E73F1FF
:1046F000000405DB1C464FF00043524263EB040309
:10470000994208BF904230BD002801DBC0F1004053
:10471000002901DBC1F1004181427047002801DB23
:10472000C0F10040002901DBC1F10041884270471F
:1047300030B50B46014600202022012409E021FA71
:1047400002F59D4205D303FA02F5491B04FA02F56E
:104750002844151EA2F10102F1DC30BD202A04DB41
:10476000203A00FA02F1002070479140C2F1200384
:1047700020FA03F3194390407047202A04DB203AC3
:1047800021FA02F00021704721FA02F3D040C2F171
:1047900020029140084319467047202A06DBCB17B8
:1047A000203A41FA02F043EAE07306E041FA02F3EC
:1047B000D040C2F1200291400843194670470029B9
:1047C000A8BF7047401C490008BF20F00100704797
:1047D00010B4B0FA80FC00FA0CF050EA010404BFF7
:1047E00010BC704749B1CCF1200421FA04F411FA4D
:1047F0000CF118BF012121430843A3EB0C01CB1D91
:104800004FEA00614FEA102042BF002010BC704701
:1048100000EBC35010440029A4BF10BC7047401CDB
:10482000490008BF20F0010010BC704710B5141EED
:1048300073F1000408DA401C41F1000192185B4159
:104840001A4301D120F0010010BD2DE9F04D924630
:104850009B4611B1B1FA81F202E0B0FA80F2203247
:104860009046FFF77BFF04460F4640EA0A0041EA04
:104870000B0153465A46084313D0114653EA010030
:1048800019D0C8F140025046FFF777FF05460E46A3
:10489000504659464246FFF761FF084305D00120C4
:1048A00004E020463946BDE8F08D0020054346EA85
:1048B000E0762C4337430A986305E40AA0EB08002E
:1048C0000022FD0A44EA47540A3002D5002001467E
:1048D000E9E7010510196941DDE908450019694159
:1048E000BDE8F04DA2E70000064C074D06E0E06889
:1048F00040F0010394E8070098471034AC42F6D327
:10490000FFF71AFCAC710008CC71000800BFFEE78D
:1049100001460878062802D0087809280AD1887844
:1049200040B991F8880008B901207047087C08B99F
:104930000120FAE70020F8E72DE9F0478246A4209D
:1049400050F80A1050468847DC21DAF88000B0FBA6
:10495000F1F000EB80004100A02040F80A109AF826
:104960000100012858D1A02050F80A00C82820DCF6
:10497000A02050F80A001430DAF8941081420CD3C9
:10498000982010F80A0000284AD10121982000F848
:104990000A10244880F8381042E00021982000F8DE
:1049A0000A10204890F8380048B31E4880F83810A4
:1049B00036E0A02050F80A00C82831DDA02151F8C7
:1049C0000A00FFF7F2FD0646174A184BFFF7FEFCF8
:1049D00004460D46DAF89400FFF7F8FD80462246BB
:1049E0002B46FFF779FE0BD8982010F80A0030B953
:1049F0000121982000F80A100A4880F838100FE0CA
:104A00000021982000F80A10064890F8380038B1C4
:104A1000044880F8381003E00021982000F80A10BC
:104A2000BDE8F087180000209A9999999999F13F6B
:104A3000704701B502E00098401E009000980028E1
:104A4000F9D108BD00B502464FF47A7102FB01F0BE
:104A500000F001F800BD08B5002100913FE000BF63
:104A600000BF00BF00BF00BF00BF00BF00BF00BF4E
:104A700000BF00BF00BF00BF00BF00BF00BF00BF3E
:104A800000BF00BF00BF00BF00BF00BF00BF00BF2E
:104A900000BF00BF00BF00BF00BF00BF00BF00BF1E
:104AA00000BF00BF00BF00BF00BF00BF00BF00BF0E
:104AB00000BF00BF00BF00BF00BF00BF00BF00BFFE
:104AC00000BF00BF00BF00BF00BF00BF00BF00BFEE
:104AD00000BF00BF00BF00BF0099491C00910099B2
:104AE0008142BCD308BD000010B5044620780628DA
:104AF00002D02078092804D11021124800F08FFA42
:104B000003E010210F4800F088FAA078012802D0B5
:104B10006078052804D120210A4800F080FA03E0DB
:104B20002021084800F079FA6078012804D140215A
:104B3000044800F074FA03E04021024800F06DFAE6
:104B400010BD0000000C014010B50EA001F0CEFC1D
:104B5000802000F02DF898B18021104800F054FA20
:104B600028B1012807D100200D49087004E0012078
:104B70000B49087000E000BF00BF802000F012F871
:104B800010BD00000A0A0A0A0A0A6C616C610A0A6E
:104B90000A0A0A0A0A0A0A0A00000000000C014078
:104BA00064000020014908607047000014040140BF
:104BB000014600200022074B1B6803EA0102054B57
:104BC00014331B680B4013B10AB1012000E0002030
:104BD0007047000000040140002123498279002A27
:104BE0003AD00A46126803689A430B461A600A1DB7
:104BF000126803689A430B1D1A60027911440A680F
:104C000003681A430A60184A0832126803689A4314
:104C1000154B08331A601A1D126803689A43124B29
:104C20000C331A604279102A0ED11A1F12680368D9
:104C30001A430D4B08331A601A1D126803681A4391
:104C4000094B0C331A600DE00749427911440A6898
:104C500003681A430A6005E0027911440A68036890
:104C60009A430A6070470000000401400EB501211C
:104C7000092000F05BFD00F049FC8020ADF8080041
:104C800004208DF80B0002A90A4800F0E9F807217A
:104C9000012000F0C5F88020009000208DF804006D
:104CA00010208DF8050001208DF806006846FFF7FA
:104CB00093FF0EBD000C014010B50446A0780128FA
:104CC00007D1002000F042FF002000F0E1FC0420AA
:104CD000607010BD0149C8607047000000200240AC
:104CE00030B5044604254FF4302000F085F8054621
:104CF000042D17D10C48006940F002000A490861F0
:104D000008464461006940F0400008614FF43020DB
:104D100000F072F805460448006941F6FD7108404C
:104D200001490861284630BD0020024004200B499B
:104D3000C96801F0010109B101200EE00749C96805
:104D400001F0040109B1022007E00449C96801F03B
:104D5000100109B1032000E0042070470020024048
:104D60000348006940F08000014908617047000075
:104D70000020024078B506460C460425002000902D
:104D8000E80200F039F80546042D24D113480069E3
:104D900040F00100114908613480E80200F02CF86D
:104DA0000546042D10D1B01C0090200C00990880FD
:104DB000E80200F021F805460848006941F6FE7156
:104DC00008400649086106E00448006941F6FE71A2
:104DD000084002490861284678BD000000200240D2
:104DE000024803494860034848607047230167450B
:104DF00000200240AB89EFCD00B502460423FFF747
:104E000095FF034603E0FFF791FF0346521E012B77
:104E100001D1002AF7D102B90523184600BD0000D0
:104E200030B500228B071C0F0F2303FA04F20B4B43
:104E30008C1053F824309343084C8D1044F82530DF
:104E400023468C1053F824308C07240F00FA04F406
:104E50002343024C8D1044F8253030BD080001403A
:104E60002DE9F04102460025002600200023002401
:104E7000002791F803C00CF00F0591F803C00CF067
:104E8000100CBCF1000F03D091F802C04CEA0505EC
:104E900091F800C0BCF1000F31D0146800202BE065
:104EA0004FF0010C0CFA00F3B1F800C00CEA030655
:104EB0009E4220D183004FF00F0C0CFA03F7BC4345
:104EC00005FA03FC4CEA040491F803C0BCF1280F76
:104ED00006D14FF0010C0CFA00FCC2F814C00AE035
:104EE00091F803C0BCF1480F05D14FF0010C0CFA4A
:104EF00000FCC2F810C0401C0828D1D31460B1F8DF
:104F000000C0BCF1FF0F34DD546800202EE000F13A
:104F1000080C4FF0010808FA0CF3B1F800C00CEAD5
:104F200003069E4221D183004FF00F0C0CFA03F7C9
:104F3000BC4305FA03FC4CEA040491F803C0BCF13D
:104F4000280F05D100F1080C08FA0CF8C2F81480FB
:104F500091F803C0BCF1480F07D100F1080C4FF0E5
:104F6000010808FA0CF8C2F81080401C0828CED3BB
:104F70005460BDE8F0810000F0B50A46002300242B
:104F80000021002500F00046B6F1004F02D11D4E71
:104F9000F16901E01B4E7168C0F3034583B200F470
:104FA0004016B6F5401F08D121F07061154E7668A5
:104FB00026F07066134F7E6012E000F48016B6F59E
:104FC000801F06D1032606FA05F4A14341F0706163
:104FD00006E0460D360103FA06F6B14341F0706172
:104FE00022B1460D360103FA06F6314300F00046C1
:104FF000B6F1004F02D1034EF16101E0014E716044
:10500000F0BD0000000001400246002093680B4004
:105010000BB1012000E00020704741617047016141
:10502000704700002DE9F0474FF0000800260027E8
:105030004FF47A7400250FE020211C48FFF7E4FFAD
:1050400000B1761C01211A48FFF7DEFF00B17F1C7A
:105050000A20FFF700FD6D1CA542EDDB5A206043DE
:10506000642190FBF1F0B04201DA012000E0002061
:10507000814632206043642190FBF1F0B84201DAAE
:10508000012000E000208246B9F1000F02D14FF06C
:10509000060807E0BAF1000F02D14FF0090801E05D
:1050A0004FF00C084046BDE8F087000000080140C2
:1050B000000C01402DE9FC5F82464FF0000B0620FA
:1050C00000F0B6F920F07F4B9C2151F80A00FFF761
:1050D000EFFA06460F465846FFF778FA084A094B9A
:1050E000CDE90001FFF772F9804632463B46FFF7F3
:1050F0006DF90446FFF7C3FACAF89400BDE8FC9FB7
:105100009A9999999999B93F70B5044660780128A0
:105110001BD1206AFFF73BFA0546E168FFF7F4FA76
:1051200003D8012084F8290012E0606AFFF72FFA03
:105130000546E168FFF7F2FA03D8022084F8290057
:1051400006E0002084F8290002E0002084F829000D
:1051500070BD000038B504460020009014B984F8F2
:10516000780038BD1E48007870B901201C490870CD
:10517000684601F08FFB0546BDF80000194908801C
:1051800001201949087228E01748007A08BB6846D0
:1051900001F080FB0546BDF80000124909888842ED
:1051A0000CD1104800880C2808DB012084F8780016
:1051B000BDF800107A200153E56706E0BDF8000055
:1051C00008490880002084F878000020044908700D
:1051D000C7E7002084F87800C3E700BFC1E70000FC
:1051E0005A000020580000201800002070B5092047
:1051F00000F01EF90646FFF7D3F905462946034895
:10520000FEF7FFFF0446FFF7EEF970BD80DAE048D5
:1052100010B580210748FFF7F7FE48B90A20FFF7CD
:1052200011FC80210348FFF7EFFE08B9012010BDF3
:105230000020FCE7000C014070B5044604B970BDC5
:10524000264634252A463146142001F021FE00BFAF
:10525000F5E7000070B50446FFF7E4FE20700E4845
:105260000078A070FFF7C2FF0546FFF790F9E060F5
:10527000204600F02EF8204600F010F82046FFF7F8
:1052800043FFA820015920468847204601F092FE9E
:105290002046FFF75FFF70BD6400002041780129C0
:1052A00013D142694168914203D3012180F828104B
:1052B0000EE082694168914203D8022180F82810EB
:1052C00006E0002180F8281002E0002180F8281074
:1052D00070472DE9F04104460025082000F0A8F8A9
:1052E00020F07F452846FFF75BF90746A168FEF7E7
:1052F00056FF0646FFF790F96060BDE8F0810000B8
:1053000008B501210D2000F011FA01214348FFF7F3
:1053100033FE1020ADF800008DF8030003208DF857
:10532000020069463E48FFF79BFD01213B48FFF71D
:1053300023FE0820ADF8000010208DF803000320A4
:105340008DF8020069463648FFF78AFD012133488F
:10535000FFF712FE2020ADF8000010208DF80300AA
:1053600003208DF8020069462D48FFF779FD0121E1
:105370002A48FFF701FE4020ADF8000010208DF80C
:10538000030003208DF8020069462548FFF768FDF9
:105390008020ADF8000004208DF8030003208DF874
:1053A000020069461E48FFF75BFD0220ADF80000D1
:1053B00010208DF8030003208DF80200694619487B
:1053C000FFF74EFD2020ADF8000004208DF803000B
:1053D00003208DF8020069461248FFF741FD0120C5
:1053E000ADF8000004208DF8030003208DF80200C2
:1053F00069460B48FFF734FD8020ADF80000182007
:105400008DF8030003208DF8020069460548FFF778
:1054100027FD10210248FFF700FE08BD0002300002
:10542000000C01400008014000BFFEE700BFFEE79E
:105430002DE9F0410446002500260027A846204615
:1054400000F076FB4FF480510F48FFF7E6FD204651
:1054500000F0E8FAFF2000F0E5FA0646FF2000F031
:10546000E1FA0746FF2000F0DDFA80464FF4805154
:105470000548FFF7D4FD300440EA072040EA08055C
:105480002846BDE8F0810000000C014070B50546DB
:105490000C460026284600F04BFB4FF48051104884
:1054A000FFF7BBFD45F0800000F0BCFAC4F30740F5
:1054B00000F0B8FAC4F3072000F0B4FAE0B200F04C
:1054C000B1FA4FF480510648FFF7A9FD1620FFF707
:1054D000AFFF0646A64201D1012070BD0020FCE7C7
:1054E000000C0140704708B54FF4E06000F05AF836
:1054F00026208DF8000001208DF801008DF80200B3
:105500008DF80300684600F015F808BD08B54FF4A3
:10551000C06000F047F817208DF8000001208DF8DA
:1055200001008DF802008DF80300684600F002F8D3
:1055300008BD000070B5002100230F22C47804B319
:10554000154C246804F4E064C4F5E064210AC1F158
:105550000403CA40447804FA03F1847814402143D8
:1055600009010E4C0678A155047804F01F050124AA
:10557000AC4005786D11AD0005F1E025C5F800419E
:1055800009E0047804F01F050124AC40044D0678BE
:10559000761145F8264070BD0CED00E000E400E017
:1055A00080E100E002490143024A116070470000B7
:1055B0000000FA050CED00E0704770B504460D469A
:1055C000207A00B970BDD5F890000668207A0128CD
:1055D00002D0022810D103E02660022020720CE0E5
:1055E0002068301A06466168884204D32846E1687C
:1055F00088470020207200E000BF00BF00BFE1E745
:1056000010B588B04FF47A740121042000F08EF8B0
:105610008020ADF81C0018208DF81F0003208DF8A5
:105620001E0007A91848FFF71BFC0121022000F00B
:105630006DF8601EADF814004720ADF81000002092
:10564000ADF81600ADF812008DF8180004A90F4847
:1056500000F032FD6020ADF800000120ADF802003E
:105660000020ADF80800ADF806406946074800F094
:10567000C3FC0821054800F011FD0121034800F09A
:10568000AFFC08B010BD000000080140000400405D
:1056900010B504462CB105490968087800F008F8EF
:1056A00002E0642000F004F810BD000014000020A7
:1056B0001FB50446642C00DD64246020ADF80000B2
:1056C0000120ADF802000020ADF8080004EB8400D2
:1056D0004000ADF8060000210B4800F081FC0021DD
:1056E000094800F0DBFC6946074800F085FC08210A
:1056F000054800F0D3FC0121034800F071FC0A20AA
:10570000FFF7A0F91FBD00000004004029B1064AC0
:10571000D2690243044BDA6104E0034AD26982434E
:10572000014BDA61704700000010024029B1064ABF
:1057300092690243044B9A6104E0034A92698243EE
:10574000014B9A61704700000010024030B5002103
:105750000022002400232D4D6D6805F00C0121B1BD
:10576000042905D0082923D105E0294D056022E050
:10577000274D05601FE0254D6D6805F47012234D1F
:105780006D6805F48034022505EB92421CB9214D69
:10579000554305600BE01D4D6D6805F400351DB1E6
:1057A0001C4D5543056002E0194D5543056002E06C
:1057B000174D056000BF00BF144D6D6805F0F00186
:1057C0000909154D6B5C0568DD4045600F4D6D683E
:1057D00005F4E061090A104D6B5C4568DD408560A9
:1057E0000A4D6D6805F46051C90A0B4D6B5C456844
:1057F000DD40C560054D6D6805F44041890B074DDE
:105800006B5CC568B5FBF3F5056130BD0010024067
:1058100000127A0000093D00720000208200002082
:1058200010B586B0044601210420FFF77FFF012157
:105830004804FFF76BFF0420ADF8140018208DF822
:10584000170003208DF8160005A91648FFF708FB7E
:105850000820ADF8140004208DF8170005A91148A0
:10586000FFF7FEFA01940020ADF80800ADF80A0039
:10587000ADF80C00ADF810000C20ADF80E0001A939
:10588000094800F03DFD0121074800F090FCFFF7BA
:105890002AFE012240F22551034800F00CFD06B01B
:1058A00010BD0000000801400044004010B504464F
:1058B0002146054800F095FD00BF8021024800F018
:1058C000C3FC0028F9D010BD0044004070B5054667
:1058D0000E46002400BF03E0285DFFF7E7FF641CCD
:1058E000B442F9D340F6FF70FFF7A3F870BD21B1C1
:1058F000028842F04002028004E002884FF6BF7343
:105900001A40028070470246002013890B400BB1F9
:10591000012000E00020704701468889704781819E
:10592000704710B50022028802F441520B884C885F
:1059300023438C882343CC8823430C8923434C89FD
:1059400023438C892343CC8923431A430280838BCE
:105950004FF2FF74234083830B8A038210BD000043
:1059600000B587B001218803FFF7D0FE01214CF27A
:105970000800FFF7DBFE4FF48050ADF80400032071
:105980008DF8060010208DF8070001A92348FFF7C5
:1059900067FA4FF40050ADF8040018208DF80700A6
:1059A00001A91E48FFF75CFA4FF48040ADF80400EF
:1059B00001A91A48FFF754FA4FF40040ADF804006B
:1059C00001A91648FFF74CFA4FF480511348FFF72E
:1059D00026FB0020ADF808004FF48270ADF80A00F5
:1059E0000020ADF80C00ADF80E000120ADF810005D
:1059F0004002ADF812003020ADF814000020ADF8E0
:105A000016000720ADF8180002A90548FFF789FF26
:105A100001210348FFF76BFF07B000BD000C0140F8
:105A20000038004010B504464FF480501949086012
:105A30000AE018490868411E164A116020B9002082
:105A400000F02CF8C0B210BD02211348FFF75BFF35
:105A50000028EED021461048FFF761FF4FF4805038
:105A60000C4908600AE00B490868411E094A1160A8
:105A700020B9012000F012F8C0B2E4E70121064885
:105A8000FFF741FF0028EED00348FFF745FFC0B203
:105A9000D9E700006C0000200038004010B5044633
:105AA000214602A000F022FD002010BD53504920E5
:105AB000B5C8B4FDB3ACCAB1216572726F72436FE1
:105AC0006465203D2025640010B54FF480510A48DC
:105AD000FFF7A3FAB220FFF7A5FF0020FFF7A2FF10
:105AE0000020FFF79FFFA620FFF79CFF4FF4805197
:105AF0000148FFF794FA10BD000C014010B54FF4B7
:105B000080510A48FFF789FAB220FFF78BFF002087
:105B1000FFF788FF0020FFF785FFBC20FFF782FF1B
:105B20004FF480510148FFF77AFA10BD000C014094
:105B300010B50446502C02DBFFF7C6FF03E0402CF3
:105B400001DBFFF7DBFF10BD7047000010B5044616
:105B500024B102210448FFF762FA03E0022102485F
:105B6000FFF75BFA10BD00000008014010B500F01F
:105B700001F810BD0CB5002001900090334800687A
:105B800040F480303149086000BF3048006800F4BC
:105B9000003000900198401C0190009818B90198BD
:105BA000B0F5A06FF1D12948006800F4003010B1C1
:105BB0000120009001E0002000900098012843D1CE
:105BC0002348006840F0100021490860084600683A
:105BD00020F0030008600846006840F002000860FA
:105BE0001A484068194948600846406848600846B5
:105BF000406840F4806048600846406820F47C10AB
:105C000048600846406840F4E8104860084600686C
:105C100040F08070086000BF0C48006800F0007021
:105C20000028F9D00948406820F00300074948607F
:105C30000846406840F00200486000BF03484068E2
:105C400000F00C000828F9D10CBD00000010024043
:105C500000200240012080F3138800BF00BF0748E6
:105C6000006800F4E06006490843001D034908602D
:105C7000BFF34F8F00BF00BFFEE700000CED00E058
:105C80000000FA0510B504462046FEF741FE012843
:105C90000AD1FFF7FDFC207806280DD10120FFF77F
:105CA00055FF0120607007E00020FFF7F1FC0020A5
:105CB000FFF74CFF0220607010BD014608780628EF
:105CC00011D19820405C02280BD091F8880001285F
:105CD00005D1087C08B9002070470120FCE70020AE
:105CE000FAE70320F8E70220F6E7000010B50446C3
:105CF000D4F8840001F032F92046FFF7DEFF0128D6
:105D00000AD0022802D0032819D10FE00020FFF7A3
:105D10001DFF0320607013E00020FFF7B9FC094865
:105D2000007E10B901210748017609E00020FFF745
:105D30000DFF0020FFF7ACFC0520607000E000BF05
:105D400000BF10BD1800002010B504466548C4F817
:105D50009000FFF7D5FAFFF753FCFEF787FF00F03E
:105D6000FDF9FFF7FDFD04F12C00FFF765FA372080
:105D7000005DFF283DD15CA104F12C00FEF706FA7E
:105D8000012138200155002184F8391084F83A1097
:105D900084F83B10302131200155662184F83210FF
:105DA000342184F833106E2184F83410782184F87B
:105DB0003510762184F836104FF41651A1654FF452
:105DC000DC51E1650021372001554FF42561E16385
:105DD00040F24E712164810161644121A1642D2151
:105DE000E164434921654349616504F12C0000F0F9
:105DF000FCFA00F0E9F9A06DFFF712FD992084F894
:105E00006C0099216D2001556E2001556F200155C0
:105E10007020015571200155802084F87200802186
:105E200073200155742001557520015576200155C8
:105E3000772001550020FFF789FE0020FFF728FC9E
:105E4000E06B6061206CA061A020616C0151A06CCE
:105E50002062E06C60623F214320FFF717FB206D5A
:105E6000A0600A216B20FFF711FB9C20616D01519E
:105E700002216A20FFF70AFBFFF7CAF91E490870E2
:105E800002206070002084F8280084F82900012096
:105E9000207404F13100D4F83110623461608088DC
:105EA0002081606844F8020C20896080623C04F123
:105EB000880001F003F8E06D8034E0603420606019
:105EC000E06844F8800904F184000C4908600C493A
:105ED000A42001510B49A82001510021982001550F
:105EE00010BD0000680000206B6A30310000000027
:105EF000E73F7F3A04FE403A64000020140000208F
:105F0000B55000083949000802480068401C0149A2
:105F1000086070476800002030B5164800684FF4EC
:105F20007A72B0FBF2F1B1F1807F01D301201DE064
:105F300021F07F40401E4FF0E022506150170F22A9
:105F4000002807DA13071D0E0B4B00F00F04241F67
:105F50001D5503E013071C0E084B1C5400BF002006
:105F60004FF0E022906107201061002008B100BFCF
:105F7000FEE730BD0000002018ED00E000E400E086
:105F800010B51348006840F0010011490860084648
:105F90004068104908400E494860084600680E49AC
:105FA00008400B4908600846006820F4802008601B
:105FB0000846406820F4FE0048604FF41F008860E7
:105FC000FFF7D4FD4FF000600449086010BD0000E9
:105FD000001002400000FFF8FFFFF6FE08ED00E0B1
:105FE00021B1028842F00102028004E002884FF6EB
:105FF000FE731A400280704770B50024002200230F
:10600000058C4FF6EF7635400584028C8388048B2F
:1060100048F6FF752C404FF6FF452C400D884FF693
:10602000FF7606EA05252C434FF6DF752A400D89D9
:1060300006EA05152A434D8806EA05152A43154D3B
:10604000A84202D0144DA8421DD14FF67F752A40B8
:106050004D894FF6FF7606EA05152A434FF6BF75C0
:106060002A408D8806EA05152A434FF6FF352B4056
:106070004FF2FF752B408D8906EA85052B43CD89AC
:1060800006EA85052B4383800483CD880587028437
:1060900070BD0000002C0140003401400A46002180
:1060A000018B4FF2FF7319404FF6FF7303EA02238F
:1060B0001943018370470000002202881D4B98425B
:1060C0000ED01D4B98420BD0B0F1804F08D01B4B27
:1060D000984205D01A4B984202D01A4B984204D1EC
:1060E0004FF68F731A404B881A43174B984207D0CC
:1060F000164B984204D04FF6FF431A40CB881A4300
:1061000002808B8883850B8803850A4B98420BD0CD
:10611000094B984208D00E4B984205D00D4B98423F
:1061200002D00D4B984201D10B7A03860123838262
:1061300070470000002C0140003401400004004082
:1061400000080040000C0040001000400014004017
:1061500000400140004401400048014010B5FFF7F5
:10616000DBFE10BD10B540F22551064800F079F86D
:1061700038B1044800F030F9C4B22146014800F0BB
:1061800030F910BD0038014010B500F079FA10BDAB
:1061900010B50022002340F66A14A14200D100BFCE
:1061A0000A1201249440A3B2DC43048010BD21B143
:1061B000828942F40052828104E082894DF6FF73A5
:1061C0001A4082817047000000B585B00121082087
:1061D000FFF7ACFA01218804FFF798FA4FF48060CA
:1061E000ADF8100018208DF8130003208DF8120070
:1061F00004A91348FEF734FE4FF40060ADF8100018
:1062000004208DF8130004A90D48FEF729FE4FF471
:10621000E13000900020ADF80400ADF80600ADF8C4
:106220000800ADF80C000C20ADF80A0069460548DE
:1062300000F066F801210348FFF7B9FF05B000BD83
:10624000000C01400048004002460020B1F5007FEC
:1062500000D100BF13880B400BB1012000E00020EB
:10626000704770B50246002400230025002040F648
:106270006A16B14200D100BFC1F3421501F01F03FD
:10628000012606FA03F3012D02D19689334006E078
:10629000022D02D1168A334001E0968A33400C1257
:1062A000012606FA04F41688344013B10CB101201B
:1062B00000E0002070BDF0B5034600240026002554
:1062C000002040F66A17B94200D100BF1846C1F35A
:1062D000421401F01F06012707FA06F5012C01D12F
:1062E0000C3004E0022C01D1103000E014301AB15F
:1062F00007682F43076002E00768AF430760F0BDFF
:106300002DE9F04786B005460E460024A24600BFA0
:10631000A1460027B08900B100BF2F462C8A4CF659
:10632000FF700440F08804432C82AC894EF6F310D1
:106330000440B08831890843718908430443AC8123
:10634000AC8A4FF6FF400440B0890443AC8201A8F8
:10635000FFF7FCF91F48874202D1DDF810A001E0E9
:10636000DDF80CA0A88900F4004040B10AEBCA0097
:1063700000EB0A1031684900B0FBF1F807E00AEBC6
:10638000CA0000EB0A1031688900B0FBF1F8642004
:10639000B8FBF0F004012009642101FB1089A889F1
:1063A00000F4004040B1322000EBC900B0FBF1F036
:1063B00000F00700044308E0322000EB09106421DC
:1063C000B0FBF1F000F00F0004432C8106B0BDE8F3
:1063D000F08700000038014001468888C0F30800BB
:1063E0007047C1F308028280704770B5044604B953
:1063F00070BD342526462A463146142000F064FE3E
:10640000E06A00F058FE204600F0B6FE00BFEFE75D
:1064100000BFFEE70020014908607047082C0040DB
:1064200010B5FFF7F7FF02A000F060F810BD000004
:10643000746869732073697169616E207A686F6E20
:10644000676475616E0A00000F49097811B101296E
:1064500017D104E0012101740B4A117011E0017899
:106460000C2906D102214170012101740021064A44
:106470001170017C21B9022141700021024A117082
:1064800000BF00BF7047000060000020817841B964
:10649000044991F8281011B90321417001E0052148
:1064A000417070471800002010B504466078062837
:1064B00018D2DFE800F01703070B0F132046FFF791
:1064C00015FC10E02046FFF7DDFB0CE02046FFF74F
:1064D000BBFF08E02046FFF7D9FF04E0204600F0AC
:1064E00063F900E000BF00BF10BD00000FB4054B12
:1064F00010B503A9044A029800F018F810BC5DF822
:1065000014FB0000C16700088800002002E008C8F2
:10651000121F08C1002AFAD170477047002001E01D
:1065200001C1121F002AFBD1704700002DE9FF4F67
:1065300089B09B460446002506E025280BD05A4624
:106540000B999047641C6D1C20780028F5D10DB084
:106550002846BDE8F08F0027B8460122474900E0F1
:10656000074314F8013F203B02FA03F00842F7D139
:1065700020782E2819D114F8010F47F004072A2893
:106580000ED06FF02F022078A0F1300109290CD82D
:1065900008EB880102EB410100EB0108641CF2E703
:1065A0000A98641C50F8048B0A9020780028CED0FA
:1065B000642808D0692806D075281ED05A460B9941
:1065C00090476D1C58E00A994FF00A0901C90A91D9
:1065D000002802DA40422D2102E0390504D52B21A2
:1065E0008DF82010012103E0F90704D02021F7E7FE
:1065F0008A4608AE0DE00021FAE70A994FF00A0931
:1066000001C90A91F7E74946FEF792F8303106F8DA
:10661000011D0028F7D1ADEB060000F12009780735
:1066200001D44FF00108C84502DDA8EB090000E0E5
:1066300000208046002706E008A85A46C05D0B9956
:1066400090476D1C7F1C5745F6DB04E030205A460E
:106650000B9990476D1CB8F10001A8F10108F5DC19
:1066600005E016F8010B5A460B9990476D1CB9F1DD
:106670000001A9F10109F4DC641C65E709280100A7
:1066800010B511480088B0F5806F17DA40F2255137
:106690000E48FFF7E6FDB0B10C48FFF79DFE0C4930
:1066A000094A1288885408480088401C0649088016
:1066B00040F225510548FFF76BFD04E040F22551FB
:1066C0000248FFF765FD10BD700000200044004047
:1066D0008C00002040F201400021064A118005E0B4
:1066E0000022411E89B20846034B5A540028F7D1B4
:1066F00070470000700000208C00002010B502469A
:106700000B46002106E0505C5C5CA04201D00020FA
:1067100010BD491C0629F6DB0120F9E710B5C8B009
:1067200004460020469094F8780001281FD111A05B
:10673000FFF7DCFE7A22115B46AB47AAE06F00F060
:1067400051F878B901AABDF81811479800F044FC37
:1067500020B9214601A800F0A7F806E008A0FFF73D
:10676000C5FE02E00AA0FFF7C1FEFFF7B3FF48B085
:1067700010BD000073686F7564616F0A000000004F
:106780004A69655869205368694261690A000000D6
:106790004D6569596F75205A68616F44616F207A41
:1067A00068656E0A00000000044991F8281019B9C4
:1067B0000122024981F828207047000018000020BB
:1067C00070B504460D46E1B20548FFF70AFE00BF6A
:1067D00080210348FFF738FD0028F9D0204670BD1E
:1067E000004800402DE9F04F04460D4616461F466E
:1067F00000218C46894688468A468E460CB106B1F1
:1068000017B90120BDE8F08F00213FE0681A1FFA98
:1068100080F9B9F10C0F01DA0520F3E7605C682814
:1068200032D1C81D205C68282ED10A4601F109002A
:1068300014F80080A9F10C00A0EB080EBEF1000FC7
:1068400001DA0520DEE702EB080000F10A0303F19C
:10685000010B944606E014F80C00504400F0FF0AC7
:106860000CF1010C9C45F6D3E05C504500D00CE0E7
:1068700014F80B00162800D007E0A018306008F1CB
:106880000C0038800020BDE700BF491CA942BDDBD9
:106890000920B7E701460248008808800148704790
:1068A000700000208C0000202DE9F04FADF5077D31
:1068B00005460C464FF4867102A8FDF75CFC0020EB
:1068C000019083460027824604F1660105F10C0021
:1068D000FFF714FF012815D004F16C0105F10C003D
:1068E000FFF70CFF012805D1686807280AD06868FF
:1068F0000F2807D004F1720105F10C00FFF7FEFE2E
:1069000001287DD12878112802D0142879D1D5E02A
:106910006868042876D004DC012807D0022872D1E8
:106920007BE0062870D00F28F9D1A4E091208DF8E3
:106930001A010C208DF81B010120479020780628B1
:1069400002D02078092806D145A8007B40F08001BC
:1069500045A8017305E045A8007B00F07F0145A82C
:106960000173002145A88173007B00F0F00145A868
:1069700001736078072833D2DFE800F032040B128D
:1069800019222B0045A8007B40F0010145A80173A6
:1069900027E045A8007B00F0F00145A8017320E046
:1069A00045A8007B40F0020145A8017319E045A805
:1069B000007B40F0030145A801730121817310E0C1
:1069C00045A8007B40F0030145A8017302218173B3
:1069D00007E045A8007B40F0040145A8017300E0F2
:1069E00000BF00BF002145A84173207806280FD1C1
:1069F000A08881B245A80182B4F8940081B204E075
:106A000090E172E115E050E028E045A8418203E002
:106A1000002145A80182418248E091208DF81A01A9
:106A200008208DF81B010220479045A8A16BC1608A
:106A30003CE091208DF81A0108208DF81B010420FC
:106A400047900A21D4F89400B0FBF1F00A22616863
:106A5000B1FBF2F1484345A9C86027E091208DF8C9
:106A60001A0108208DF81B010620479094F8881021
:106A700045A8C1601AE091208DF81A0118208DF800
:106A80001B010F20479045A8A16DC160E16D016118
:106A9000A16B4161D4F831204B92B4F83510ADF8B8
:106AA0003011FF218177C17700E000BF00BF206E69
:106AB0004590B4F86400ADF8180117E1686806283D
:106AC00061D006DC032809D0042838D005287CD101
:106AD0004DE0072865D00F28F9D181E0A87D10B1DD
:106AE000012829D103E001202074012625E0207827
:106AF000062802D02078092803D1A07808B9002000
:106B0000207428890C2816D11A204059C4F8800016
:106B1000D5F81A80D4F88C00404509D9B8F5A56F8E
:106B200006D9404600F0ABF9C4F88400012602E023
:106B300000264FF0010900E000BF00BFB6E01620BC
:106B40004059C4F88000D4F88080D4F88C004045C7
:106B500009D9B8F5A56F06D9404600F090F9C4F8F8
:106B60008400012602E000264FF001099EE0207813
:106B7000062802D02078092802D10026B14601E07B
:106B80000126B34692E06078012801D100202074EC
:106B9000A87D84F8880094F8880000F0FEFA0126A9
:106BA00084E062A0FFF7A2FC6078022811D164A003
:106BB000FFF79CFC002000F0E7FA65A0FFF796FCC9
:106BC0004FF0010B012666A000E06EE0FFF78EFC9F
:106BD00005E000264FF0020964A0FFF787FC65E09E
:106BE00016204759B7F5165F0CD05FB1B7F5965F21
:106BF00008D0B7F5166F05D0B7F5964F02D0B7F5A8
:106C0000E13F4ED107B1A7651A2050F805A0BAF5AB
:106C1000DC5F05D0BAF1000F02D0BAF55C6F3CD151
:106C2000BAF1000F01D0C4F85CA0A87F30280AD1C7
:106C3000E87F302807D12020405D302803D1212073
:106C4000405D302802D01E204159A1632220405DC2
:106C5000302813D12320405D30280FD12420405DFF
:106C600030280BD12520405D302807D12620405DFB
:106C7000302803D12720405D302808D0D5F82220C5
:106C800004F13100C4F83120E98CA4F8351004F186
:106C90002C00FFF7AAFB012606E000264FF00109B1
:106CA00002E000264FF0010900E000BF00BF012E06
:106CB00009D133A0FFF71AFC94208DF81A010020A7
:106CC0008DF81B010AE033A0FFF710FCD4208DF8EB
:106CD0001A0101208DF81B018DF81C91206E459042
:106CE000B4F86400ADF8180100E000BF00BF01AACD
:106CF00002A945A800F086F838B902A80199FEF764
:106D0000E5FD28A0FFF7F2FB02E029A0FFF7EEFB6C
:106D1000BBF1010F04D129A0FFF7E8FBFEF79AFFB2
:106D200000BF00BF0DF5077DBDE8F08F7A68697878
:106D3000696E67207368656E676A6931200A0000B2
:106D40006B6F6E67207869616E31200A0000000069
:106D50006B6F6E67207869616E20320A0000000058
:106D60006B6F6E67207869616E200A0062757975B5
:106D70006E7875207368656E676A69200A00000086
:106D80007A68656E676368616E67206368756C69B1
:106D9000200A000079696368616E67206368756C1A
:106DA00069200A00666120736F6E67200A00000088
:106DB0000AB4F2B0FCCAA7B0DC0A000063686F6EC8
:106DC00067207169200A0000ACB00C480C490860CB
:106DD00001AC2046FEF7B8FF0EE02046FEF73AFA77
:106DE0002046FFF79BFC2046FDF766FF2046FFF795
:106DF0005BFB2046FDF778FEEFE70000004000084F
:106E000008ED00E070B503460C4600250CB103B157
:106E10000AB9012070BD68202070002103E05E5C8B
:106E2000481C2654491C0629F9DB6820E071987932
:106E30002072D8796072002108E003F10800405CFC
:106E40003330C6B201F10A002654491CD879884271
:106E5000F3DC002103E0605C2844C5B2491CD8790A
:106E60000A308842F7DCD8790A3025541626D879BA
:106E70000B302654D8790C3010600020CAE770B56A
:106E80000446DC20B4FBF0F5284600F021F870BD84
:106E900010B50346B3F5806F02DA802A00DA01B933
:106EA00010BD002004E0044C1C44245C0C54401C25
:106EB0009042F8DB00BFF3E700300008034A117C82
:106EC000FF2900D101210170704700000030000847
:106ED0002DE9F05F82464FF0000BBAF1060F10D398
:106EE000BAF1330F0DD85046FDF770FB06464FF050
:106EF0003332164BFDF7DCFA0446FDF7A1FB83465F
:106F000021E05046FDF762FB04460022104BFDF7DE
:106F1000E3FB14D2BAF13F0F11D85046FDF756FBF0
:106F2000804600220B4BFDF7C3FA064600220A4BAF
:106F3000FDF7A5F90446FDF783FB834603E04FF018
:106F4000FF30BDE8F09F5846FBE700003333E33FD6
:106F500000404A40000004400000504070B5054623
:106F60002C46642C02D94FF0FF3070BD05480068F4
:106F7000844204D003480460E0B2FEF799FB00208D
:106F8000F3E700005C000020704710B5044660780D
:106F9000012804D10020FEF7D9FD0320607010BD48
:106FA0004178052901D103214170704702229821BF
:106FB0000A54704770B50546002400BF06E0054935
:106FC00001EB04102946FEF7F8FA641C042CF6DBEA
:106FD00070BD0000180000202DE9F04306460F4662
:106FE000002100248C46334606B112B90120BDE8C9
:106FF000F0830C2F01D20520F9E71878682802D118
:10700000D879682801D00620F1E7002107E0481C64
:1070100013F8008002F10C0000F80180491C0629D9
:10702000F5D3187A10705C7A04F10A05002C0EDD95
:1070300000210AE001F10A00185C333800F0FF0873
:1070400002F1120000F80180491CA142F2D3002194
:1070500004E0585C604400F0FF0C491CA942F8D3DE
:10706000585D604501D00720C1E7681C185C1628F0
:1070700001D00820BBE7907C92F813804FF47F4941
:1070800009EA082840EA080092F814804FF47F09C2
:1070900009EA084840EA080092F815804FF07F4955
:1070A00009EA086840EA08005060148104F10C0005
:1070B000508100209BE738B50446009404226946BD
:1070C000022000F001F838BD2DE9F04FA1B00546CF
:1070D0000E4617460024A346A0464FF00409254853
:1070E0002090EA46B5F5806F02DA802F00DA16B9F3
:1070F00021B0BDE8F08FFDF773FE4FF020080024AB
:1071000005E01C4951F824004AF82400641C444559
:10711000F7D3002404E0305D29190DF80100641C48
:10712000BC42F8D34FF0010B3420FDF7D3FD00240F
:1071300007E010494A1402FB0410FDF7D1FD814617
:10714000641C5C4502D2B9F1040FF2D0002408E0BF
:107150005AF82410074A02EB8400FDF70BFE814623
:10716000641C444502D2B9F1040FF1D0FDF7F8FDDB
:1071700000BFBDE70030000810B504460622611DBF
:107180001046FFF7A1FF10BD38B504460094012258
:1071900069460020FFF798FF38BD38B504460094D3
:1071A000012269461020FFF78FFF38BDCC7100081F
:1071B000000000208C0000000C65000858720008D8
:1071C0008C000020040800001C65000800A24A048E
:1071D0000000000000000000010203040607080987
:1071E000000000000000000014000000000000008B
:1071F000896F000800000000B80B000000000000CC
:107200008B6F0008000000008813000000000000E1
:10721000A16F0008000000008813000000000000BB
:10722000AD6F00080000000000000000000000003A
:10723000000000000000000000A0000000000000AE
:107240000000010203040102030406070809020406
:08725000060800000000000028
:04000005080041317D
:00000001FF
