:020000040800F2
:1000000048080020650100081107000809070008DA
:100010000D070008FD010008D50D000800000000D4
:10002000000000000000000000000000D3090008EC
:100030006902000800000000ED070008ED0A000852
:10004000E50D00087F0100087F0100087F0100081E
:100050007F0100087F0100087F0100087F01000880
:100060007F0100087F0100087F0100087F01000870
:100070007F0100087F0100087F0100087F01000860
:100080007F0100087F0100087F0100087F01000850
:100090007F0100087F0100087F0100080D030008B0
:1000A0007F0100087F0100087F0100087F01000830
:1000B0007F0100087F0100087F0100087F01000820
:1000C0007F0100087F0100087F0100087F01000810
:1000D0007F010008BD0B0008E10B00087F0100084C
:1000E0007F0100087F0100087F0100087F010008F0
:1000F0007F0100087F0100087F0100087F010008E0
:100100007F0100087F0100087F0100087F010008CF
:100110007F0100087F0100087F0100087F010008BF
:100120007F0100087F0100087F0100087F010008AF
:10013000DFF80CD000F050F8004800471D1500080B
:1001400048080020EFF30980704780F30988704762
:10015000EFF30880704780F30888704740BA704713
:10016000C0BA70470648804706480047FEE7FEE7EA
:10017000FEE7FEE7FEE7FEE7FEE7FEE7FEE7FEE757
:100180005D0B000831010008D2B201E000F8012B3C
:10019000491EFBD270470022F6E710B513460A4607
:1001A00004461946FFF7F0FF204610BD30B50B4658
:1001B000014600202022012409E021FA02F59D4297
:1001C00005D303FA02F5491B04FA02F52844151E6B
:1001D000A2F10102F1DC30BD064C074D06E0E068FB
:1001E00040F0010394E8070098471034AC42F6D37E
:1001F000FFF7A2FF641A0008841A000800BFFEE798
:100200002DE9F04100244FF4C0560425144FDFF8C7
:10021000548000F049F9342000F0C0F800BF07E036
:100220000F494A1402FB041000F0BEF80546641C96
:10023000182C01D2042DF3D0002409E0094B53F807
:100240002410074A02EB840000F0F8F80546641C0D
:10025000B44201D2042DF1D000F0E6F8BDE8F081FF
:100260000040000800A00008704701B502E00098B7
:10027000401E009000980028F9D108BD08B5002163
:1002800000913FE000BF00BF00BF00BF00BF00BF44
:1002900000BF00BF00BF00BF00BF00BF00BF00BF66
:1002A00000BF00BF00BF00BF00BF00BF00BF00BF56
:1002B00000BF00BF00BF00BF00BF00BF00BF00BF46
:1002C00000BF00BF00BF00BF00BF00BF00BF00BF36
:1002D00000BF00BF00BF00BF00BF00BF00BF00BF26
:1002E00000BF00BF00BF00BF00BF00BF00BF00BF16
:1002F00000BF00BF00BF00BF00BF00BF00BF00992C
:10030000491C009100998142BCD308BD10B50EA0D4
:1003100000F07CFD802000F02DF898B1802110487D
:1003200000F0B4F928B1012807D100200D49087068
:1003300004E001200B49087000E000BF00BF8020EE
:1003400000F012F810BD00000A0A0A0A0A0A6C61DD
:100350006C610A0A0A0A0A0A0A0A0A0A000000006C
:10036000000C014020000020014908607047000097
:1003700014040140014600200022074B1B6803EAD9
:100380000102054B14331B680B4013B10AB1012065
:1003900000E0002070470000000401400149C860EF
:1003A000704700000020024030B5044604254FF499
:1003B000302000F085F80546042D17D10C4800695F
:1003C00040F002000A49086108464461006940F0B3
:1003D000400008614FF4302000F072F805460448F0
:1003E000006941F6FD71084001490861284630BDA9
:1003F0000020024004200B49C96801F0010109B145
:1004000001200EE00749C96801F0040109B102208A
:1004100007E00449C96801F0100109B1032000E0B8
:1004200004207047002002400348006940F080002B
:1004300001490861704700000020024078B5064677
:100440000C46042500200090E80200F039F805462B
:10045000042D24D11348006940F0010011490861BE
:100460003480E80200F02CF80546042D10D1B01CB1
:100470000090200C00990880E80200F021F8054661
:100480000848006941F6FE7108400649086106E027
:100490000448006941F6FE71084002490861284697
:1004A00078BD00000020024002480349486003482C
:1004B000486070472301674500200240AB89EFCDBB
:1004C00000B502460423FFF795FF034603E0FFF75C
:1004D00091FF0346521E012B01D1002AF7D102B928
:1004E0000523184600BD2DE9F041024600250026EF
:1004F000002000230024002791F803C00CF00F0512
:1005000091F803C00CF0100CBCF1000F03D091F86F
:1005100002C04CEA050591F800C0BCF1000F31D0D3
:10052000146800202BE04FF0010C0CFA00F3B1F836
:1005300000C00CEA03069E4220D183004FF00F0C4E
:100540000CFA03F7BC4305FA03FC4CEA040491F8E7
:1005500003C0BCF1280F06D14FF0010C0CFA00FCCF
:10056000C2F814C00AE091F803C0BCF1480F05D1ED
:100570004FF0010C0CFA00FCC2F810C0401C082817
:10058000D1D31460B1F800C0BCF1FF0F34DD546862
:1005900000202EE000F1080C4FF0010808FA0CF3DF
:1005A000B1F800C00CEA03069E4221D183004FF04F
:1005B0000F0C0CFA03F7BC4305FA03FC4CEA0404E5
:1005C00091F803C0BCF1280F05D100F1080C08FA1E
:1005D0000CF8C2F8148091F803C0BCF1480F07D1A1
:1005E00000F1080C4FF0010808FA0CF8C2F810806E
:1005F000401C0828CED35460BDE8F081F0B50A460F
:10060000002300240021002500F00046B6F1004F31
:1006100002D11D4EF16901E01B4E7168C0F3034524
:1006200083B200F44016B6F5401F08D121F0706186
:10063000154E766826F07066134F7E6012E000F467
:100640008016B6F5801F06D1032606FA05F4A143ED
:1006500041F0706106E0460D360103FA06F6B1433B
:1006600041F0706122B1460D360103FA06F63143BE
:1006700000F00046B6F1004F02D1034EF16101E0F7
:10068000014E7160F0BD00000000014002460020F4
:1006900093680B400BB1012000E0002070474161DE
:1006A000704701617047000008B501210D2000F07E
:1006B000AFF801211248FFF7A1FF1020ADF80000AC
:1006C0008DF8030003208DF8020069460D48FFF7FE
:1006D0000AFF01210A48FFF791FF2020ADF8000032
:1006E00010208DF8030003208DF8020069460548AC
:1006F000FFF7F9FE10210348FFF7D1FF08BD000006
:1007000000023000000C014000BFFEE700BFFEE722
:10071000704708B54FF4E06000F046F826208DF8E9
:10072000000001208DF801008DF802008DF8030013
:10073000684600F001F808BD70B5002100230F22C3
:10074000C47804B3154C246804F4E064C4F5E06490
:10075000210AC1F10403CA40447804FA03F1847801
:100760001440214309010E4C0678A155047804F089
:100770001F050124AC4005786D11AD0005F1E025A1
:10078000C5F8004109E0047804F01F050124AC40DD
:10079000044D0678761145F8264070BD0CED00E05A
:1007A00000E400E080E100E002490143024A1160F8
:1007B000704700000000FA050CED00E010B500F0F5
:1007C000CDFC0849087000F073FC07490870054823
:1007D000007810B10846007808B9012010BD00204B
:1007E000FCE700000000002001000020704700002E
:1007F00029B1064AD2690243044BDA6104E0034A94
:10080000D2698243014BDA61704700000010024058
:1008100029B1064A92690243044B9A6104E0034AF3
:1008200092698243014B9A617047000000100240B8
:1008300030B500210022002400232D4D6D6805F005
:100840000C0121B1042905D0082923D105E0294D47
:10085000056022E0274D05601FE0254D6D6805F419
:100860007012234D6D6805F48034022505EB924229
:100870001CB9214D554305600BE01D4D6D6805F415
:1008800000351DB11C4D5543056002E0194D55431F
:10089000056002E0174D056000BF00BF144D6D6894
:1008A00005F0F0010909154D6B5C0568DD404560F8
:1008B0000F4D6D6805F4E061090A104D6B5C4568E9
:1008C000DD4085600A4D6D6805F46051C90A0B4D25
:1008D0006B5C4568DD40C560054D6D6805F44041C1
:1008E000890B074D6B5CC568B5FBF3F5056130BD41
:1008F0000010024000127A0000093D002E00002086
:100900003E00002010B586B0044601210420FFF708
:100910007FFF01214804FFF76BFF0420ADF81400AE
:1009200018208DF8170003208DF8160005A9164829
:10093000FFF7D9FD0820ADF8140004208DF817004A
:1009400005A91148FFF7CFFD01940020ADF808007C
:10095000ADF80A00ADF80C00ADF810000C20ADF8B1
:100960000E0001A9094800F0B7F90121074800F07D
:100970004AF9FFF7CEFE012240F22551034800F06C
:1009800085F906B010BD0000000801400044004099
:1009900010B504462146054800F00FFA00BF80213B
:1009A000024800F03CF90028F9D010BD0044004096
:1009B00070B505460E46002400BF03E0285DFFF732
:1009C000E7FF641CB442F9D340F6FF70FFF74DFC1B
:1009D00070BD704710B500F001F810BD0CB50020D7
:1009E000019000903348006840F48030314908603D
:1009F00000BF3048006800F4003000900198401CAF
:100A00000190009818B90198B0F5A06FF1D129486C
:100A1000006800F4003010B10120009001E00020D7
:100A200000900098012843D12348006840F010004E
:100A3000214908600846006820F003000860084665
:100A4000006840F0020008601A4840681949486090
:100A50000846406848600846406840F48060486046
:100A60000846406820F47C1048600846406840F41E
:100A7000E81048600846006840F08070086000BFD9
:100A80000C48006800F000700028F9D00948406860
:100A900020F00300074948600846406840F0020023
:100AA000486000BF0348406800F00C000828F9D1F6
:100AB0000CBD00000010024000200240012080F325
:100AC000138800BF00BF0748006800F4E0600649D3
:100AD0000843001D03490860BFF34F8F00BF00BFEC
:100AE000FEE700000CED00E00000FA051548008864
:100AF000401E1449088014480078144909780843B6
:100B0000114908700F480088D8B911480088401E64
:100B10000F49088005200B4908800B4800780D49D3
:100B200009780843084908700948008848B96420D2
:100B300007490880044800780749097808430249B2
:100B400008707047280000202100002022000020AB
:100B50002A000020230000202400002010B51348A4
:100B6000006840F0010011490860084640681049DB
:100B700008400E494860084600680E4908400B4985
:100B800008600846006820F4802008600846406835
:100B900020F4FE0048604FF41F008860FFF71AFF42
:100BA0004FF000600449086010BD000000100240D2
:100BB0000000FFF8FFFFF6FE08ED00E010B540F280
:100BC0002551064800F038F838B1044800F0F0F834
:100BD000C4B22146014800F0F0F810BD00380140D1
:100BE00010B500F0DDF910BD10B50022002340F66D
:100BF0006A14A14200D100BF0A1201249440A3B29A
:100C0000DC43048010BD21B1828942F4005282810C
:100C100004E082894DF6FF731A40828170470246D4
:100C20000020B1F5007F00D100BF13880B400BB14D
:100C3000012000E00020704770B502460024002328
:100C40000025002040F66A16B14200D100BFC1F372
:100C5000421501F01F03012606FA03F3012D02D10C
:100C60009689334006E0022D02D1168A334001E016
:100C7000968A33400C12012606FA04F41688344092
:100C800013B10CB1012000E0002070BDF0B50346A7
:100C9000002400260025002040F66A17B94200D142
:100CA00000BF1846C1F3421401F01F06012707FADE
:100CB00006F5012C01D10C3004E0022C01D11030DA
:100CC00000E014301AB107682F43076002E007689C
:100CD000AF430760F0BD00002DE9F04786B0054640
:100CE0000E460024A24600BFA1460027B08900B1ED
:100CF00000BF2F462C8A4CF6FF700440F088044356
:100D00002C82AC894EF6F3100440B0883189084338
:100D1000718908430443AC81AC8A4FF6FF4004401C
:100D2000B0890443AC8201A8FFF782FD1F488742C7
:100D300002D1DDF810A001E0DDF80CA0A88900F4D4
:100D4000004040B10AEBCA0000EB0A1031684900CC
:100D5000B0FBF1F807E00AEBCA0000EB0A103168BB
:100D60008900B0FBF1F86420B8FBF0F00401200921
:100D7000642101FB1089A88900F4004040B13220B1
:100D800000EBC900B0FBF1F000F00700044308E0FD
:100D9000322000EB09106421B0FBF1F000F00F00ED
:100DA00004432C8106B0BDE8F08700000038014004
:100DB00001468888C0F308007047C1F308028280AA
:100DC0007047000010B520210148FFF76AFC10BDF4
:100DD000000C014000BFFEE7002001490860704799
:100DE000082C004010B5FFF7F7FF02A000F00EF846
:100DF00010BD0000746869732073697169616E20A9
:100E00007A686F6E676475616E0A00000FB4054BF7
:100E100010B503A9044A029800F018F810BC5DF858
:100E200014FB0000691000084400002002E008C81C
:100E3000121F08C1002AFAD170477047002001E054
:100E400001C1121F002AFBD1704700002DE9FF4F9E
:100E500089B09B460446002506E025280BD05A465B
:100E60000B999047641C6D1C20780028F5D10DB0BB
:100E70002846BDE8F08F0027B8460122474900E028
:100E8000074314F8013F203B02FA03F00842F7D170
:100E900020782E2819D114F8010F47F004072A28CA
:100EA0000ED06FF02F022078A0F1300109290CD864
:100EB00008EB880102EB410100EB0108641CF2E73A
:100EC0000A98641C50F8048B0A9020780028CED031
:100ED000642808D0692806D075281ED05A460B9978
:100EE00090476D1C58E00A994FF00A0901C90A9110
:100EF000002802DA40422D2102E0390504D52B21D9
:100F00008DF82010012103E0F90704D02021F7E734
:100F10008A4608AE0DE00021FAE70A994FF00A0967
:100F200001C90A91F7E74946FFF740F9303106F861
:100F3000011D0028F7D1ADEB060000F1200978076C
:100F400001D44FF00108C84502DDA8EB090000E01C
:100F500000208046002706E008A85A46C05D0B998D
:100F600090476D1C7F1C5745F6DB04E030205A4645
:100F70000B9990476D1CB8F10001A8F10108F5DC50
:100F800005E016F8010B5A460B9990476D1CB9F114
:100F90000001A9F10109F4DC641C65E709280100DE
:100FA00010B511480088B0F5806F17DA40F225516E
:100FB0000E48FFF741FEB0B10C48FFF7F9FE0C49AF
:100FC000094A1288885408480088401C064908804D
:100FD00040F225510548FFF707FE04E040F2255195
:100FE0000248FFF701FE10BD2C0000200044004025
:100FF0004800002040F201400021064A118005E02F
:101000000022411E89B20846034B5A540028F7D1EA
:10101000704700002C0000204800002010B5024658
:101020000B46002106E0505C5C5CA04201D0002031
:1010300010BD491C0629F6DB0120F9E730B5024650
:10104000002000230BE012F8015B85EA2024E4B2C3
:10105000044D35F8144084EA0024A0B25B1C8B4296
:10106000F1DB30BD6418000870B504460D46E1B2EE
:101070000548FFF7A2FE00BF80210348FFF7CFFD20
:101080000028F9D0204670BD004800400246106894
:101090000B68984209D190888B88984205D1D088F6
:1010A000CB88984201D1012070470020FCE7000066
:1010B00008B50020009001226946104600F08EFA23
:1010C00078B19DF80000FF280BD107480068074958
:1010D0000840B0F1005F02D10120009001E0002043
:1010E00000909DF8000008BD004000080000FE2FA1
:1010F0001CB5044606226946104600F06FFA0098B7
:101100002060BDF80400A0801CBD08B54FF4165047
:10111000009004226946022000F060FA28B100988D
:10112000FF2802D14FF4165000900098B0F5964F6A
:1011300012D00098B0F5165F0ED00098B0F5965F0B
:101140000AD00098B0F5166F06D00098B0F5966FEB
:1011500002D04FF416500090009808BD08B500204A
:1011600000900122694600F039FA28B19DF800008C
:10117000FF2801D1012000909DF8000008BD2DE955
:10118000F04F04460D4616461F4600218C46894600
:1011900088468A468E460CB106B117B90120BDE8D3
:1011A000F08F00213FE0681A1FFA80F9B9F10C0FA7
:1011B00001DA0520F3E7605C682832D1C81D205CA5
:1011C00068282ED10A4601F1090014F80080A9F11F
:1011D0000C00A0EB080EBEF1000F01DA0520DEE7DF
:1011E00002EB080000F10A0303F1010B944606E04C
:1011F00014F80C00504400F0FF0A0CF1010C9C455F
:10120000F6D3E05C504500D00CE014F80B00162833
:1012100000D007E0A018306008F10C0038800020F2
:10122000BDE700BF491CA942BDDB0920B7E70000AC
:101230000146024800880880014870472C000020C1
:101240004800002070B50446206806490840B0F107
:10125000005F05D1666835462068FEF77CFFA84729
:1012600070BD00000000FE2FCAB000204990012090
:1012700048900020469003201849087008460078DE
:1012800000F0E2FA29E049A8FFF7D2FF044642F253
:101290001070FEF7F3FF48A8FFF7CAFF0446BDF839
:1012A0002401BDF82011884217D1BDF824010C2873
:1012B00013DB46AB47AABDF824112046FFF75FFFBA
:1012C00048B901AABDF81811479800F09FF910B964
:1012D00001A800F005F8FFF78DFED4E7000000201C
:1012E0002DE9F043FDB00446D82105A8FEF753FFD1
:1012F0000020049000278046029003907C4903C997
:10130000CDE90001B94614B97DB0BDE8F083794953
:1013100004F10C00FFF782FE30B9774904F10C00AC
:10132000FFF77CFE00B9EFE72078342805D020785D
:10133000142802D0002501269EE0606802900298E1
:10134000082813D1E08AADF80C00208BADF80E0010
:10135000BDF80C0050B969480068082806D16748F4
:10136000C08818B9BDF80E006449C880634902A856
:10137000FFF78CFE00286DD00298082823D1B4F81E
:101380009A70842104F11600FFF758FE8046474505
:1013900002D0002502266FE0BDF80E10BDF80C004B
:1013A00004F11A0200F0AAF9BDF80C00BDF80E1005
:1013B000884206D10420524908700846007800F09F
:1013C00043FA012523E00298092820D105204C4941
:1013D00008700846007800F037FA00204949087084
:1013E0000846007800F081F9FEF70AFF0120444921
:1013F00008700846007800F027FA0120414908707B
:101400000846007800F071F901254FF002093E48C6
:101410003A4A06CA06C0029808282CD1BDF80C002A
:10142000BDF80E10884209D1BDF80E0030B1092078
:101430003249086000208880C8801CE0BDF80C009C
:10144000BDF80E10884216DA2C488088401C2B49C3
:10145000888010E02C4902A8FFF718FE08B101258A
:1014600009E0694602A8FFF711FE10B10125A9465F
:1014700001E00025012600BF012D06D194208DF842
:10148000F20000208DF8F30007E0D4208DF8F20080
:1014900001208DF8F3008DF8F460164801683B9147
:1014A0008088ADF8F000144904F10C00FFF7B6FD98
:1014B00068B904AA05A93BA800F052F820B905A80C
:1014C0000499FFF775FA02E010A0FFF79FFCB9F14D
:1014D000010F03D0B9F1020F06D101E0FFF7EEFAD8
:1014E0000D48FFF7AFFE00E000BF00BF00BF0BE7F5
:1014F0005C180008020000200800002018000020EE
:101500000000002001000020100000200AB4F2B00A
:10151000FCCAA7B0DC0A0000004000081CB5FFF7B9
:10152000C3F8FFF7F2FD0446FFF7ECF96846FFF752
:10153000DFFD094800990160BDF804108180FFF7C4
:101540003DF918B1FFF73EFCFFF78EFE0348FFF7A9
:1015500079FE00201CBD00000200002000400008B1
:1015600070B503460C4600250CB103B10AB9012041
:1015700070BD68202070002103E05E5C481C26548A
:10158000491C0629F9DB6820E07198792072D87926
:101590006072002108E003F10800405C3330C6B2FD
:1015A00001F10A002654491CD8798842F3DC002155
:1015B00003E0605C2844C5B2491CD8790A308842EF
:1015C000F7DCD8790A3025541626D8790B30265402
:1015D000D8790C3010600020CAE7000010B503462F
:1015E0000C46B3F5806F02DA802A00DA0CB90020CD
:1015F00010BD002104E004481844405C6054491CBC
:101600009142F8DB0120F3E7003000082DE9F043B8
:1016100006460F46002100248C46334606B112B917
:101620000120BDE8F0830C2F01D20520F9E71878DE
:10163000682802D1D879682801D00620F1E7002176
:1016400007E0481C13F8008002F10C0000F801804C
:10165000491C0629F5D3187A10705C7A04F10A0542
:10166000002C0EDD00210AE001F10A00185C33387D
:1016700000F0FF0802F1120000F80180491CA142AD
:10168000F2D3002104E0585C604400F0FF0C491CD8
:10169000A942F8D3585D604501D00720C1E7681C16
:1016A000185C162801D00820BBE7907C92F81380C4
:1016B0004FF47F4909EA082840EA080092F81480AC
:1016C0004FF47F0909EA084840EA080092F81580BB
:1016D0004FF07F4909EA086840EA08005060148129
:1016E00004F10C00508100209BE738B504460094BB
:1016F00001226946104600F04FF838BD2DE9FE4F33
:1017000004460E4692464FF0000800200290042046
:1017100001904FF00009FEF7C7FE3420FEF73EFEB1
:10172000CCB9F008029006F0070010B10298401CF6
:1017300002904FF0000808E016494A1402FB081016
:10174000FEF732FE019008F101080298804502D2AE
:1017500001980428F0D00F4800EBC41707F1800B64
:10176000B946CDF800A0002509E0009850F82510F2
:101770004846FEF763FE019009F104096D1C202D17
:1017800004DAD94502D201980428EED0FEF74CFEC7
:10179000BDE8FE8F00A000082DE9F04FA1B005467E
:1017A0000E4617460024A346A0464FF004092548DC
:1017B0002090EA46B5F5806F02DA802F00DA16B97C
:1017C00021B0BDE8F08FFEF76FFE4FF02008002437
:1017D00005E01C4951F824004AF82400641C4445E3
:1017E000F7D3002404E0305D29190DF80100641CD2
:1017F000BC42F8D34FF0040B3420FEF7CFFD002499
:1018000007E010494A1402FB0410FEF7CDFD8146A3
:10181000641C5C4502D2B9F1040FF2D0002408E048
:101820005AF82410074A02EB8400FEF707FE8146AF
:10183000641C444502D2B9F1040FF1D0FEF7F4FD67
:1018400000BFBDE70030000838B50446009401220F
:1018500069460020FFF7A0FF38BD0000050000002A
:101860000000000000002110422063308440A55099
:10187000C660E770088129914AA16BB18CC1ADD1D6
:10188000CEE1EFF13112100273325222B55294427E
:10189000F772D662399318837BB35AA3BDD39CC326
:1018A000FFF3DEE36224433420040114E664C774CA
:1018B000A44485546AA54BB528850995EEE5CFF576
:1018C000ACC58DD55336722611163006D776F6661E
:1018D0009556B4465BB77AA719973887DFF7FEE7C6
:1018E0009DD7BCC7C448E5588668A77840086118EA
:1018F00002282338CCC9EDD98EE9AFF94889699916
:101900000AA92BB9F55AD44AB77A966A711A500ABD
:10191000333A122AFDDBDCCBBFFB9EEB799B588B65
:101920003BBB1AABA66C877CE44CC55C222C033C09
:10193000600C411CAEED8FFDECCDCDDD2AAD0BBDB5
:10194000688D499D977EB66ED55EF44E133E322E5D
:10195000511E700E9FFFBEEFDDDFFCCF1BBF3AAF05
:10196000599F788F8891A981CAB1EBA10CD12DC163
:101970004EF16FE18010A100C230E32004502540F9
:1019800046706760B9839893FBA3DAB33DC31CD359
:101990007FE35EF3B1029012F322D2323542145249
:1019A00077625672EAB5CBA5A89589856EF54FE5A5
:1019B0002CD50DC5E234C324A01481046674476499
:1019C00024540544DBA7FAB79987B8975FE77EF7F9
:1019D0001DC73CD7D326F2369106B01657667676E9
:1019E000154634564CD96DC90EF92FE9C899E989C5
:1019F0008AB9ABA94458654806782768C018E10839
:101A00008238A3287DCB5CDB3FEB1EFBF98BD89B98
:101A1000BBAB9ABB754A545A376A167AF10AD01A88
:101A2000B32A923A2EFD0FED6CDD4DCDAABD8BADE4
:101A3000E89DC98D267C076C645C454CA23C832CD8
:101A4000E01CC10C1FEF3EFF5DCF7CDF9BAFBABF38
:101A5000D98FF89F176E367E554E745E932EB23E28
:101A6000D10EF01E841A000800000020480000007B
:101A70002C0E0008CC1A00084800002000080000C6
:101A80003C0E0008000000000000000099999999A0
:101A90009999000007000000000000000800000005
:101AA00000000000000001020400010005006400C5
:101AB0000000000000000102030401020304060705
:0C1AC000080902040608000000000000F5
:0400000508000131BD
:00000001FF
